{
  "_format": "hh-sol-artifact-1",
  "contractName": "Escrow",
  "sourceName": "contracts/Escrow.sol",
  "abi": [
    {
      "inputs": [
        {
          "internalType": "address",
          "name": "_nftAddress",
          "type": "address"
        },
        {
          "internalType": "address payable",
          "name": "_seller",
          "type": "address"
        },
        {
          "internalType": "address",
          "name": "_inspector",
          "type": "address"
        },
        {
          "internalType": "address",
          "name": "_lender",
          "type": "address"
        }
      ],
      "stateMutability": "nonpayable",
      "type": "constructor"
    },
    {
      "inputs": [
        {
          "internalType": "uint256",
          "name": "",
          "type": "uint256"
        },
        {
          "internalType": "address",
          "name": "",
          "type": "address"
        }
      ],
      "name": "approval",
      "outputs": [
        {
          "internalType": "bool",
          "name": "",
          "type": "bool"
        }
      ],
      "stateMutability": "view",
      "type": "function"
    },
    {
      "inputs": [
        {
          "internalType": "uint256",
          "name": "_nftID",
          "type": "uint256"
        }
      ],
      "name": "approve",
      "outputs": [],
      "stateMutability": "nonpayable",
      "type": "function"
    },
    {
      "inputs": [
        {
          "internalType": "uint256",
          "name": "",
          "type": "uint256"
        }
      ],
      "name": "buyer",
      "outputs": [
        {
          "internalType": "address",
          "name": "",
          "type": "address"
        }
      ],
      "stateMutability": "view",
      "type": "function"
    },
    {
      "inputs": [
        {
          "internalType": "uint256",
          "name": "_nftID",
          "type": "uint256"
        }
      ],
      "name": "depositeEarnest",
      "outputs": [],
      "stateMutability": "payable",
      "type": "function"
    },
    {
      "inputs": [
        {
          "internalType": "uint256",
          "name": "",
          "type": "uint256"
        }
      ],
      "name": "escrowAmount",
      "outputs": [
        {
          "internalType": "uint256",
          "name": "",
          "type": "uint256"
        }
      ],
      "stateMutability": "view",
      "type": "function"
    },
    {
      "inputs": [],
      "name": "getBalance",
      "outputs": [
        {
          "internalType": "uint256",
          "name": "",
          "type": "uint256"
        }
      ],
      "stateMutability": "view",
      "type": "function"
    },
    {
      "inputs": [
        {
          "internalType": "uint256",
          "name": "",
          "type": "uint256"
        }
      ],
      "name": "inspectionPassed",
      "outputs": [
        {
          "internalType": "bool",
          "name": "",
          "type": "bool"
        }
      ],
      "stateMutability": "view",
      "type": "function"
    },
    {
      "inputs": [],
      "name": "inspector",
      "outputs": [
        {
          "internalType": "address",
          "name": "",
          "type": "address"
        }
      ],
      "stateMutability": "view",
      "type": "function"
    },
    {
      "inputs": [],
      "name": "lender",
      "outputs": [
        {
          "internalType": "address",
          "name": "",
          "type": "address"
        }
      ],
      "stateMutability": "view",
      "type": "function"
    },
    {
      "inputs": [
        {
          "internalType": "uint256",
          "name": "_nftID",
          "type": "uint256"
        },
        {
          "internalType": "address",
          "name": "_buyer",
          "type": "address"
        },
        {
          "internalType": "uint256",
          "name": "_purchasedPrice",
          "type": "uint256"
        },
        {
          "internalType": "uint256",
          "name": "_escrowAmount",
          "type": "uint256"
        }
      ],
      "name": "list",
      "outputs": [],
      "stateMutability": "payable",
      "type": "function"
    },
    {
      "inputs": [],
      "name": "nftAddress",
      "outputs": [
        {
          "internalType": "address",
          "name": "",
          "type": "address"
        }
      ],
      "stateMutability": "view",
      "type": "function"
    },
    {
      "inputs": [
        {
          "internalType": "uint256",
          "name": "",
          "type": "uint256"
        }
      ],
      "name": "purchasedPrice",
      "outputs": [
        {
          "internalType": "uint256",
          "name": "",
          "type": "uint256"
        }
      ],
      "stateMutability": "view",
      "type": "function"
    },
    {
      "inputs": [],
      "name": "seller",
      "outputs": [
        {
          "internalType": "address payable",
          "name": "",
          "type": "address"
        }
      ],
      "stateMutability": "view",
      "type": "function"
    },
    {
      "inputs": [
        {
          "internalType": "uint256",
          "name": "_nftID",
          "type": "uint256"
        },
        {
          "internalType": "bool",
          "name": "_passed",
          "type": "bool"
        }
      ],
      "name": "updateInspectionStatus",
      "outputs": [],
      "stateMutability": "nonpayable",
      "type": "function"
    },
    {
      "stateMutability": "payable",
      "type": "receive"
    }
  ],
  "bytecode": "0x60806040523480156200001157600080fd5b5060405162000fb538038062000fb58339818101604052810190620000379190620001f3565b836000806101000a81548173ffffffffffffffffffffffffffffffffffffffff021916908373ffffffffffffffffffffffffffffffffffffffff16021790555082600160006101000a81548173ffffffffffffffffffffffffffffffffffffffff021916908373ffffffffffffffffffffffffffffffffffffffff16021790555081600260006101000a81548173ffffffffffffffffffffffffffffffffffffffff021916908373ffffffffffffffffffffffffffffffffffffffff16021790555080600360006101000a81548173ffffffffffffffffffffffffffffffffffffffff021916908373ffffffffffffffffffffffffffffffffffffffff1602179055505050505062000265565b600080fd5b600073ffffffffffffffffffffffffffffffffffffffff82169050919050565b6000620001768262000149565b9050919050565b620001888162000169565b81146200019457600080fd5b50565b600081519050620001a8816200017d565b92915050565b6000620001bb8262000149565b9050919050565b620001cd81620001ae565b8114620001d957600080fd5b50565b600081519050620001ed81620001c2565b92915050565b6000806000806080858703121562000210576200020f62000144565b5b6000620002208782880162000197565b94505060206200023387828801620001dc565b9350506040620002468782880162000197565b9250506060620002598782880162000197565b91505092959194509250565b610d4080620002756000396000f3fe6080604052600436106100e15760003560e01c80639d0e5fd61161007f578063bcead63e11610059578063bcead63e146102f1578063c3b089621461031c578063c9f0ec7e14610338578063ed2cee9e14610354576100e8565b80639d0e5fd614610262578063b759f9541461028b578063b848de35146102b4576100e8565b80635bf8633a116100bb5780635bf8633a146101805780635d19e56c146101ab5780635eed5fff146101e85780639a63d88614610225576100e8565b806308551a53146100ed57806312065fe0146101185780634dd4acaf14610143576100e8565b366100e857005b600080fd5b3480156100f957600080fd5b5061010261037f565b60405161010f91906108d4565b60405180910390f35b34801561012457600080fd5b5061012d6103a5565b60405161013a9190610908565b60405180910390f35b34801561014f57600080fd5b5061016a60048036038101906101659190610954565b6103ad565b60405161017791906109a2565b60405180910390f35b34801561018c57600080fd5b506101956103e0565b6040516101a291906109a2565b60405180910390f35b3480156101b757600080fd5b506101d260048036038101906101cd9190610954565b610404565b6040516101df9190610908565b60405180910390f35b3480156101f457600080fd5b5061020f600480360381019061020a9190610954565b61041c565b60405161021c91906109d8565b60405180910390f35b34801561023157600080fd5b5061024c60048036038101906102479190610954565b61043c565b6040516102599190610908565b60405180910390f35b34801561026e57600080fd5b5061028960048036038101906102849190610a1f565b610454565b005b34801561029757600080fd5b506102b260048036038101906102ad9190610954565b610513565b005b3480156102c057600080fd5b506102db60048036038101906102d69190610a8b565b61057f565b6040516102e891906109d8565b60405180910390f35b3480156102fd57600080fd5b506103066105ae565b60405161031391906109a2565b60405180910390f35b61033660048036038101906103319190610954565b6105d4565b005b610352600480360381019061034d9190610acb565b61069a565b005b34801561036057600080fd5b5061036961086d565b60405161037691906109a2565b60405180910390f35b600160009054906101000a900473ffffffffffffffffffffffffffffffffffffffff1681565b600047905090565b60076020528060005260406000206000915054906101000a900473ffffffffffffffffffffffffffffffffffffffff1681565b60008054906101000a900473ffffffffffffffffffffffffffffffffffffffff1681565b60066020528060005260406000206000915090505481565b60086020528060005260406000206000915054906101000a900460ff1681565b60056020528060005260406000206000915090505481565b600260009054906101000a900473ffffffffffffffffffffffffffffffffffffffff1673ffffffffffffffffffffffffffffffffffffffff163373ffffffffffffffffffffffffffffffffffffffff16146104e4576040517f08c379a00000000000000000000000000000000000000000000000000000000081526004016104db90610bb5565b60405180910390fd5b806008600084815260200190815260200160002060006101000a81548160ff0219169083151502179055505050565b60016009600083815260200190815260200160002060003373ffffffffffffffffffffffffffffffffffffffff1673ffffffffffffffffffffffffffffffffffffffff16815260200190815260200160002060006101000a81548160ff02191690831515021790555050565b60096020528160005260406000206020528060005260406000206000915091509054906101000a900460ff1681565b600360009054906101000a900473ffffffffffffffffffffffffffffffffffffffff1681565b806007600082815260200190815260200160002060009054906101000a900473ffffffffffffffffffffffffffffffffffffffff1673ffffffffffffffffffffffffffffffffffffffff163373ffffffffffffffffffffffffffffffffffffffff1614610676576040517f08c379a000000000000000000000000000000000000000000000000000000000815260040161066d90610c47565b60405180910390fd5b600660008381526020019081526020016000205434101561069657600080fd5b5050565b600160009054906101000a900473ffffffffffffffffffffffffffffffffffffffff1673ffffffffffffffffffffffffffffffffffffffff163373ffffffffffffffffffffffffffffffffffffffff161461072a576040517f08c379a000000000000000000000000000000000000000000000000000000000815260040161072190610cb3565b60405180910390fd5b60008054906101000a900473ffffffffffffffffffffffffffffffffffffffff1673ffffffffffffffffffffffffffffffffffffffff166323b872dd3330876040518463ffffffff1660e01b815260040161078793929190610cd3565b600060405180830381600087803b1580156107a157600080fd5b505af11580156107b5573d6000803e3d6000fd5b5050505060016004600086815260200190815260200160002060006101000a81548160ff021916908315150217905550816005600086815260200190815260200160002081905550806006600086815260200190815260200160002081905550826007600086815260200190815260200160002060006101000a81548173ffffffffffffffffffffffffffffffffffffffff021916908373ffffffffffffffffffffffffffffffffffffffff16021790555050505050565b600260009054906101000a900473ffffffffffffffffffffffffffffffffffffffff1681565b600073ffffffffffffffffffffffffffffffffffffffff82169050919050565b60006108be82610893565b9050919050565b6108ce816108b3565b82525050565b60006020820190506108e960008301846108c5565b92915050565b6000819050919050565b610902816108ef565b82525050565b600060208201905061091d60008301846108f9565b92915050565b600080fd5b610931816108ef565b811461093c57600080fd5b50565b60008135905061094e81610928565b92915050565b60006020828403121561096a57610969610923565b5b60006109788482850161093f565b91505092915050565b600061098c82610893565b9050919050565b61099c81610981565b82525050565b60006020820190506109b76000830184610993565b92915050565b60008115159050919050565b6109d2816109bd565b82525050565b60006020820190506109ed60008301846109c9565b92915050565b6109fc816109bd565b8114610a0757600080fd5b50565b600081359050610a19816109f3565b92915050565b60008060408385031215610a3657610a35610923565b5b6000610a448582860161093f565b9250506020610a5585828601610a0a565b9150509250929050565b610a6881610981565b8114610a7357600080fd5b50565b600081359050610a8581610a5f565b92915050565b60008060408385031215610aa257610aa1610923565b5b6000610ab08582860161093f565b9250506020610ac185828601610a76565b9150509250929050565b60008060008060808587031215610ae557610ae4610923565b5b6000610af38782880161093f565b9450506020610b0487828801610a76565b9350506040610b158782880161093f565b9250506060610b268782880161093f565b91505092959194509250565b600082825260208201905092915050565b7f4f6e6c7920696e73706563746f722063616e20696e766f6b652074686973206d60008201527f6574686f64000000000000000000000000000000000000000000000000000000602082015250565b6000610b9f602583610b32565b9150610baa82610b43565b604082019050919050565b60006020820190508181036000830152610bce81610b92565b9050919050565b7f4f6e6c79206275796572206f662074686973206e66742063616e20696e766f6b60008201527f652074686973206d6574686f6400000000000000000000000000000000000000602082015250565b6000610c31602d83610b32565b9150610c3c82610bd5565b604082019050919050565b60006020820190508181036000830152610c6081610c24565b9050919050565b7f4f6e6c792073656c6c65722063616e2063616c6c2074686973206d6574686f64600082015250565b6000610c9d602083610b32565b9150610ca882610c67565b602082019050919050565b60006020820190508181036000830152610ccc81610c90565b9050919050565b6000606082019050610ce86000830186610993565b610cf56020830185610993565b610d0260408301846108f9565b94935050505056fea2646970667358221220a6655150eb3c4ef7757937ef1772d48f740805975b19648805a210084c8c775164736f6c63430008110033",
  "linkReferences": {},
  "deployedLinkReferences": {}
}